S010000070726F6772616D612E73726563BB
S11300000C9448000C945A000C945A000C945A0016
S11300100C945A000C945A000C945A000C945A00F4
S11300200C945A000C945A000C945A000C945A00E4
S11300300C945A000C9481000C9491000C945A0076
S11300400C945A000C945A000C945A000C945A00C4
S11300500C94DD000C945A000C945A000C945A0031
S11300600C945A000C945A000C945A000C945A00A4
S11300700C945A000C945A000C945A00BF00C2000D
S1130080C500C800CB00CE00D100D400D700DA00F0
S113009011241FBECFEFD4E0DEBFCDBF21E0A0E02E
S11300A0B1E001C01D92A130B207E1F70E94AA009D
S11300B00C9412010C9400008FEF81B984B982EF83
S11300C08AB98CE08BB9089583EA84BD81E085BD4B
S11300D08FEF87BD88BD0895109280008AE08093D9
S11300E081008AEF9FEF909389008093880088EACB
S11300F091E690938B0080938A0086E080936F0052
S113010008951F920F920FB60F9211248F9385B109
S11301108C7F85B912B88F910F900FBE0F901F90EE
S113012018951F920F920FB60F9211240F900FBEC5
S11301300F901F9018951092C00088E98093C10019
S113014086E08093C20083E390E09093C50080939F
S1130150C40008950E945C000E9464000E949B00F9
S11301600E946C007894FFCF90E0FC01E156F10905
S1130170EA30F10508F5E25CFF4F0C940C01289A73
S113018029980895299A28980895109A11980895FD
S1130190119A10980895129A13980895139A129820
S11301A00895149A15980895159A14980895169A0E
S11301B017980895179A169808951F920F920FB6DC
S11301C00F9211242F933F934F935F936F937F93D9
S11301D08F939F93AF93BF93EF93FF93E0ECF0E083
S11301E080818823ECF78091C60080930001809180
S11301F000010E94B400FF91EF91BF91AF919F91D4
S11302008F917F916F915F914F913F912F910F90BB
S11302100FBE0F901F901895EE0FFF1F0590F491DD
S10B0220E02D0994F894FFCFCE
S9030000FC
