S00D000070726F62652E73726563FF
S11300000C9434000C9451000C9451000C94510045
S11300100C9451000C9451000C9451000C94510018
S11300200C9451000C9451000C9451000C94510008
S11300300C9451000C9451000C9451000C945100F8
S11300400C9451000C9451000C9479000C945100C0
S11300500C9451000C9451000C9451000C945100D8
S11300600C9451000C94510011241FBECFEFD8E022
S1130070DEBFCDBF11E0A0E0B1E0ECECF1E002C0E6
S113008005900D92A830B107D9F721E0A8E0B1E0BE
S113009001C01D92A431B207E1F70E94D3000C9471
S11300A0E4000C9400001092C00088E98093C10021
S11300B086E08093C20083E390E09093C500809330
S11300C0C4000895E0ECF0E0908195FFFDCF8093AB
S11300D0C6000895CF93DF93EC018881882331F023
S11300E021960E94620089918111FBCFDF91CF910B
S11300F008951F920F920FB60F9211242F933F93DE
S11301004F935F936F937F938F939F93AF93BF931B
S1130110EF93FF93E0ECF0E080818823ECF780918B
S1130120C60080930901809109018032F9F4E091BD
S11301300801F0E0E65FFE4F1082109208018AE0A9
S113014091E00E946A0060E071E08AE091E00E9420
S1130150DB00892B09F45F9A63E071E08AE091E0A7
S11301600E94DB00892B71F45F980CC0E0910801B8
S113017081E08E0F8093080180910901F0E0E65F31
S1130180FE4F8083FF91EF91BF91AF919F918F912B
S11301907F916F915F914F913F912F910F900FBE7F
S11301A00F901F90189582EF8AB98CE08BB90E944A
S11301B053007894FFCFFB01DC018D9101908019ED
S10F01C00110D9F3990B0895F894FFCFB7
S10B01CC4F6E004F666600004F
S9030000FC
