S00C0000646963652E7372656383
S113000012C0C6C029C028C027C026C025C024C02D
S113001023C022C021C020C01FC01EC01DC01CC0E0
S11300201BC01AC019C011241FBECFEDCDBF10E0F4
S1130030A0E6B0E0E4EDF3E002C005900D92A23733
S1130040B107D9F720E0A2E7B0E001C01D92A637BE
S1130050B207E1F712D0BCC1D3CF1ABA11BA8FE7F5
S113006087BB97E09BBB82BB80E888BB08958AE08E
S113007085BF80EC8BBF78940895EFDFF8DF23D140
S113008027E030E040E050E09DD07093730060932F
S1130090720010927500109274000F2EF7E0CF2EAC
S11300A0D12CE12CF12CF02DE0917200F091730031
S11300B0EE0FFF1FEC59FF4F808188BB80917400C5
S11300C090917500019781F7109275001092740059
S11300D0FAD0A701960176D0660F771FFB01EC5981
S11300E0FF4F808188BB2FEF80E792E02150804052
S11300F09040E1F700C00000E6D0A701960162D06D
S1130100660F771FFB01EC59FF4F808188BB2FEFEF
S113011080E792E0215080409040E1F700C0000069
S1130120D2D0A70196014ED0660F771FFB01EC5980
S1130130FF4F808188BB2FEF80E792E02150804001
S11301409040E1F700C00000BED0A70196013AD06C
S1130150660F771FFB01EC59FF4F808188BB2FEF9F
S113016080E792E0215080409040E1F700C0000019
S1130170AAD0A701960126D07093730060937200F1
S1130180660F771FFB01EC59FF4F808188BB8CCF32
S11301901F920F920FB60F9211248F939F938FE3A8
S11301A09CE90197F1F700C0000081E090E0909392
S11301B07500809374009F918F910F900FBE0F90E4
S11301C01F901895052E97FB16F400940FD057FD39
S11301D005D014D007FC02D046F408C050954095D1
S11301E0309521953F4F4F4F5F4F089590958095DF
S11301F0709561957F4F8F4F9F4F0895A1E21A2EFE
S1130200AA1BBB1BFD010DC0AA1FBB1FEE1FFF1FB6
S1130210A217B307E407F50720F0A21BB30BE40B06
S1130220F50B661F771F881F991F1A9469F760954D
S11302307095809590959B01AC01BD01CF01089507
S1130240A0E0B0E0E5E2F1E06EC0EC016881798104
S11302508A819B81611571058105910521F464E210
S113026079ED8BE597E02DE133EF41E050E0AADF33
S113027049015A0127EA31E440E050E031D06901F4
S11302807A01C501B4012CEE34EF4FEF5FEF28D0B3
S113029089019A01C00ED11EE21EF31EF7FE06C0AC
S11302A081E0C81AD108E10880E8F80AC882D98236
S11302B0EA82FB82C701B6019F77CDB7DEB7ECE0D7
S11302C049C0BEDF089580E690E0BADF08956093E8
S11302D060007093610080936200909363000895BE
S11302E068940013E894A0E0B0E0E8E7F1E01DC0F2
S11302F0EFEFE7F959016A015E23550FEE08FE2C72
S113030087019B01AC019E23990F660B762FCB01CD
S113031031D0CDB7DD27EAE01FC02F923F924F9234
S11303205F926F927F928F929F92AF92BF92CF9281
S1130330DF92EF92FF920F931F93CF93DF93CDB78A
S1130340CA1BCDBFDD2709942A88398848885F8471
S11303506E847D848C849B84AA84B984C884DF8061
S1130360EE80FD800C811B81AA81D981CE0FCDBF87
S1130370CA2F0895DF93CF939F92A0E49A2E00246E
S1130380D001E001F00116950795F794E794D7940E
S1130390C794B794A79448F41068A20FB31FC41F5E
S11303A0D51FE61FF71F081E191E220F331F441FF7
S11303B0551F661F771F881F991F9A9421F79D0167
S11303C0AE01BF01C00111249F90CF91DF91089528
S10703D0F894FFCFCB
S11303D401000000C000A400E400AD00ED00BF0073
S10503E4FF0014
S9030000FC
