S01D0000646973706C79206C6574726173206D6F76696C65732E73726563A8
S11300000C943E000C945B000C945B000C945B001D
S11300100C945B000C945B000C945B000C945B00F0
S11300200C945B000C945B000C945B000C945B00E0
S11300300C945B000C945B000C945B000C945B00D0
S11300400C945B000C945B000C945B000C945B00C0
S11300500C945B000C945B000C945B000C945B00B0
S11300600C945B000C945B000C945B000C945B00A0
S11300700C945B000C945B000C945B0011241FBE79
S1130080CFEFD4E0DEBFCDBF11E0A0E0B1E0EAEEF7
S1130090F5E002C005900D92AE32B107D9F721E028
S11300A0AEE2B1E001C01D92A433B207E1F70E94B1
S11300B077000C94F3020C94000080E480937C009D
S11300C0EAE7F0E083EC8083808180648083808130
S11300D086FDFDCF80917800909179009093310155
S11300E08093300108958FEF84B9089808950E9491
S11300F073008CE00E9488020E940A02C2E3D1E0ED
S11301000F2EFFE06F2EF02D6894772474F80F2ED5
S1130110F1E18F2EF02D0F2EF2E19F2EF02D0F2EF8
S1130120F3E1AF2EF02D0F2EF4E1BF2EF02D10923F
S11301303301109232010F2EF5E1CF2EF02D0F2E48
S1130140F6E1DF2EF02D0F2EF7E1EF2EF02D0F2E1E
S1130150F8E1FF2EF02D09E11AE10E945D0061E053
S113016085E00E94FC0164E070E080913001909190
S113017031010E942802888160E0262D281B822FED
S11301800E94FC0180E091E00E941A02888160E0F4
S1130190972D981B892F0E94FC0182E091E00E9418
S11301A01A02888160E0282D281B822F0E94FC01FE
S11301B08BE291E00E941A02888160E0992D981BDD
S11301C0892F0E94FC0184E091E00E941A02888138
S11301D060E02A2D281B822F0E94FC0186E091E01A
S11301E00E941A02888160E09B2D981B892F0E942F
S11301F0FC0182E091E00E941A02888160E02C2DCB
S1130200281B822F0E94FC0180E091E00E941A02C8
S1130210888160E09D2D981B892F0E94FC0188E055
S113022091E00E941A02888160E02E2D281B822F03
S11302300E94FC0186E091E00E941A02888160E03D
S11302409F2D981B892F0E94FC018BE291E00E9454
S11302501A02888160E0202F281B822F0E94FC0153
S113026084E091E00E941A02888160E0912F981B3B
S1130270892F0E94FC0186E091E00E941A02988175
S113028060E08BE1891B0E94FC018AE091E00E94FE
S11302901A02988160E08CE1891B0E94FC018CE0C9
S11302A091E00E941A02988160E08DE1891B0E940E
S11302B0FC0186E091E00E941A02988160E08EE1E0
S11302C0891B0E94FC018EE091E00E941A02988131
S11302D060E08FE1891B0E94FC0180E091E00E94B4
S11302E01A02988160E080E2891B0E94FC018EE082
S11302F091E00E941A02988160E081E2891B0E94C9
S1130300FC018BE291E00E941A02988160E082E293
S1130310891B0E94FC0188E091E00E941A029881E6
S113032060E083E2891B0E94FC0180E191E00E946D
S11303301A02988160E084E2891B0E94FC018BE22E
S113034091E00E941A02988160E085E2891B0E9474
S1130350FC0182E191E00E941A02988160E086E249
S1130360891B0E94FC018BE291E00E941A022FE794
S113037089EA93E0215080409040E1F700C00000FA
S113038080913201909133010196909333018093CF
S1130390320187970CF4E1CE60E080E00E94FC011A
S11303A084E191E00E941A02C2CE2E9A00C02E98D7
S11303B00895CF93DF93D82F662311F02C9A01C0B0
S11303C02C982D9884B18F6084B9C5B1C07F8D2FCE
S11303D082958F708C2B85B90E94D501DF70DC2B40
S11303E0D5B90E94D501CF60C5B9DF91CF910895E9
S11303F060E00E94D9010895611104C080580E94F0
S1130400F80103C080540E94F80180E590E0019750
S1130410F1F7089581E00E94F80180E29DE00197E0
S1130420F1F7089561E00E94D90180E590E0019719
S1130430F1F70895CF93DF93EC018991882329F094
S11304400E94120289918111FBCFDF91CF9108950F
S1130450EF92FF920F931F93CF93DF9300D000D0BE
S11304601F92CDB7DEB77B01FE01319625E0DF0197
S11304701D922A95E9F7009761F0FE0136962AE06D
S113048030E0B9010E94CB028293862F972F009708
S1130490C1F7BFEFEB16FB0669F4298121110FC0E8
S11304A0FE01329600E010E00F5F1F4F21912223DE
S11304B0D9F307C005E010E00E191F0902C000E0DF
S11304C010E099231CF48DE20E94120205301105FC
S11304D09CF4E1E0F0E0EC0FFD1F0E0F1F1F7E0106
S11304E0F6E0EF0EF11CD8018D918D01805D0E9424
S11304F012020E151F05B9F70F900F900F900F9071
S11305000F90DF91CF911F910F91FF90EF9008957D
S11305101F93CF93DF93182F84B18F6784B980E042
S11305209DE70197F1F7299A289A0E94D50180E066
S113053097E20197F1F70E94D501C0E8D0E0FE01EF
S11305403197F1F70E94D501FE013197F1F7289810
S11305500E94D5012197F1F788E20E94F801C0E5D5
S1130560D0E0FE013197F1F788E00E94F801FE0126
S11305703197F1F70E940A0286E00E94F801FE0119
S11305803197F1F7812F0E94F8012197F1F7DF915C
S1130590CF911F91089597FB072E16F4009407D06E
S11305A077FD09D00E94DF0207FC05D03EF4909548
S11305B081959F4F0895709561957F4F0895AA1B6B
S11305C0BB1B51E107C0AA1FBB1FA617B70710F03A
S11305D0A61BB70B881F991F5A95A9F7809590956C
S10D05E0BC01CD010895F894FFCF8B
S11305EA4D0049005000520045004F0047004100A9
S11305FA4E004300202020202020202020202020DC
S111060A20202020202020202020202000005E
S9030000FC
