S0100000756C74726F6E76342E73726563C6
S11300000C9454000C941D010C94F6000C94710093
S11300100C9471000C9471000C9471000C94710098
S11300200C9471000C9471000C9471000C94710088
S11300300C9471000C9481010C9437020C9471009F
S11300400C9471000C9471000C9471000C94710068
S11300500C9422030C9471000C9471000C947100A4
S11300600C9471000C9471000C9471000C94710048
S11300700C9471000C9471000C9471007208B70810
S113008092087808B7089908A1089D087E08B7085F
S1130090B708B708B708B708B7088A08B7088408C4
S11300A0B7089608B708A50811241FBECFEFD4E0FF
S11300B0DEBFCDBF11E0A0E0B1E0E8E4FCE102C0A6
S11300C005900D92A230B107D9F721E0A2E0B1E08A
S11300D001C01D92AD3BB207E1F70E94B40B0C9432
S11300E0220E0C940000CF92DF92EF92FF920F93B6
S11300F01F93CF93DF938C01EB01209709F456C033
S1130100CB0120E030E0EAE0F0E02F5F3F4FBF0199
S11301100E94D90DCB010097C1F7121613060CF0FB
S11301204BC0F8013396C801821B930BAC014D5FA1
S11301305F4F7A010F2EFAE0CF2ED12CF02D40E341
S1130140CE01B6010E94D90DEB0122303105A9F090
S113015024F421303105D1F024C02330310539F0A5
S113016024303105F1F490E3980F90831AC090E3A2
S1130170980F9083D8014C9314C090E3980F908308
S1130180D80111964C9311974C930BC090E3980FA0
S11301909083D80112964C93129711964C93119711
S11301A04C933197EE15FF0559F606C080E3F8012C
S11301B08383828381838083DF91CF911F910F9109
S11301C0FF90EF90DF90CF90089580E881B98FEF92
S11301D087B982EF8AB98CE08BB98EE184B908952E
S11301E08AE08093690083E08DBB08951F920F928B
S11301F00FB60F9211248F939F938FE39CE901977D
S1130200F1F700C0000089B18870809345018091A6
S1130210450181110BC0809153018F5F809353017D
S113022080915301853010F0109253019F918F916A
S11302300F900FBE0F901F9018951F920F920FB63C
S11302400F9211248F939F938FE39CE90197F1F709
S113025000C0000089B184708093450180914501FC
S113026081110FC081E08093BA0180911E01811138
S113027005C02A9A81E080931E0103C02A98109237
S11302801E019F918F910F900FBE0F901F90189594
S113029083EA84BD81E085BD80EF87BD88EC88BD9D
S11302A00895109280008AE08093810088EE93E0A4
S11302B0909389008093880084EF91E090938B0061
S11302C080938A0086E080936F00089580E4809391
S11302D07C0086E880937A008FE180937E00089505
S11302E08770806480937C00EAE7F0E0808180641A
S11302F08083808186FDFDCF809178009091790084
S113030008951F920F920FB60F9211242F933F93CB
S11303104F935F936F937F938F939F93AF93BF9309
S1130320EF93FF9386E00E947001909344018093C1
S1130330430185E00E947001909342018093410142
S1130340209141013091420180915B0190915C01C7
S11303502817390718F41092000103C081E0809334
S113036000018091510190915201019690935201A4
S113037080935101209124013091250180914F01F6
S1130380909150018217930748F48EEF80931F01D8
S11303901092560181E080938D0102C010921F01DA
S11303A020912601309127018091BB019091BC01DD
S11303B08217930748F482E08093200181E08093C0
S11303C0560110928D0102C0109220012091280143
S11303D03091290180914701909148018217930738
S11303E040F481E0809321018093560110928D01A5
S11303F002C01092210120912A0130912B01809199
S11304005F01909160018217930740F410922201DA
S113041081E08093560110928D0102C01092220156
S113042020912C0130912D0180914D0190914E012C
S11304308217930748F48FEF80932301109256019B
S113044081E080938D0102C010922301FF91EF910E
S1130450BF91AF919F918F917F916F915F914F91D8
S11304603F912F910F900FBE0F901F9018951F92E0
S11304700F920FB60F9211242F933F934F935F93D4
S11304806F937F938F939F93AF93BF93CF93DF9398
S1130490EF93FF9380913F01811135C088B18F6143
S11304A088B9C0E0D0E08C2F0E9470019093330192
S11304B080933201CE01880F991FFC01EC5CFE4F42
S11304C0208131814091320150913301241B350B3D
S11304D0FC01EC5DFE4F318320832196C530D105AC
S11304E011F78091410190914201E4E2F1E0938798
S11304F0828780914301909144019587848781E0AC
S113050080933F011DC088B1807E88B9C0E0D0E0EF
S11305108C2F0E947001909333018093320180915B
S1130520320190913301FE01EE0FFF1FEC5CFE4F90
S1130530918380832196C530D10551F710923F01F4
S1130540FF91EF91DF91CF91BF91AF919F918F91E7
S11305507F916F915F914F913F912F910F900FBEBB
S11305600F901F9018951092C00088E98093C100E5
S113057086E08093C20083E390E09093C50080936B
S1130580C4000895E0ECF0E0908195FFFDCF8093E6
S1130590C6000895AF92BF92CF92DF92FF921F934D
S11305A0CF93DF93EC01A12CB12C11E0F12CC12CE1
S11305B0D12C81E0A816B10421F48881893651F444
S11305C00DC0912F8F2D2881263611F09C2D8D2D55
S11305D0A92EB82E89910E94C202EBCF88810E9475
S11305E0C202DF91CF911F91FF90DF90CF90BF9017
S11305F0AF9008958330A9F028F4813041F082301F
S113060059F01DC0843091F08530A9F018C05E9A6D
S11306105F985C9A5D9813C05F9A5E985D9A5C9847
S11306200EC05E9A5F985D9A5C9809C05F9A5E9866
S11306305C9A5D9804C05E985C985F985D9867BD0D
S113064048BD08951F920F920FB60F921124CF92B6
S1130650DF92EF92FF920F931F932F933F934F9349
S11306605F936F937F938F939F93AF93BF93EF9316
S1130670FF93CF93DF9300D000D0CDB7DEB7E0EC8B
S1130680F0E080818823ECF78091C60080934001DC
S113069080914001893609F05CC580914601813022
S11306A009F057C51092460110923E0180919201C3
S11306B0813309F05CC580919301863799F505E68D
S11306C011E0E12CF12CF701EE0FFF1FEC5DFE4F62
S11306D060817181CE0101960E947300FE01319602
S11306E098012C5F3F4F8191D8018D938D012A177A
S11306F03B07C9F7BFEFEB1AFB0A8901E7E0EE16E7
S1130700F10409F7E5E6F1E086E782A381E683A335
S113071082E784A386E685A389E686A3CF010E94A7
S1130720CA0225C5883609F0B2C060918E01709165
S11307308F01809190019091910120E030E048EC8C
S113074052E40E946C0D0E94AF0CCE0101960E94EF
S1130750730005E611E08981D8018C938A81119692
S11307608C9311978B8112968C9312978C8113968C
S11307708C93609157017091580180915901909127
S11307805A0120E030E048EC52E40E946C0D0E94D3
S1130790AF0CCE0101960E9473008981F801848315
S11307A08A8185838B8186838C81878360914901CB
S11307B070914A0180914B0190914C0120E030E00E
S11307C048EC52E40E946C0D0E94AF0CCE010196DD
S11307D00E9473008981D80118968C9318978A8196
S11307E019968C9319978B811A968C931A978C81EE
S11307F01B968C9360911A0170911B0180911C01CE
S113080090911D010E94AF0CCE0101960E947300CD
S11308108981F80184878A8185878B8186878C8189
S1130820878760910601709107018091080190917A
S113083009010E94AF0CCE0101960E9473008981C8
S1130840D80150968C9350978A8151968C935197E6
S11308508B8152968C9352978C8153968C93539799
S113086083E692968C9392978FE693968C939397C4
S11308708EE694968C93949786E695968C939597AA
S113088089E696968C93C8010E94CA0270C48A367F
S113089009F094C060914F0170915001CE0101960E
S11308A00E94730005E611E08981F80180838A8142
S11308B081838B8182838C8183836091BB0170915E
S11308C0BC01CE0101960E9473008981D80114965F
S11308D08C9314978A8115968C9315978B81169611
S11308E08C9316978C8117968C9360914701709125
S11308F04801CE0101960E9473008981F801808726
S11309008A8181878B8182878C81838760915F0153
S113091070916001CE0101960E9473008981D80113
S11309201C968C931C978A811D968C931D978B81A2
S11309301E968C931E978C811F968C9360914D010B
S113094070914E01CE0101960E9473008981F801D5
S1130950808B8A81818B8B81828B8C81838B60914C
S11309605B0170915C01CE0101960E947300898144
S1130970D80154968C9354978A8155968C935597A5
S11309808B8156968C9356978C8157968C93579758
S113099082E792968C93929785E693968C9393979D
S11309A086E694968C93949795968C93959789E67E
S11309B096968C93C8010E94CA02D9C3823709F063
S11309C0FDC18091940180538A3018F080E38093B4
S11309D094018091950180538A3018F080E38093CC
S11309E095018091960180538A3018F080E38093BA
S11309F0960102E911E0F801828190E0C09728EEA7
S1130A0033E0829FA001839F500D929F500D1124CB
S1130A10838190E0C09764E6689F9001699F300DE0
S1130A201124240F351F848190E0C097AC01440F3A
S1130A30551F880F991F880F991F880F991F840FBE
S1130A40951F820F931F258130E020533109820FB7
S1130A50931F9093500180934F0160914F017091C7
S1130A60500180E090E00E940F0ED80116968C9100
S1130A7080538A3018F080E3809398018091990123
S1130A8080538A3018F080E38093990180919A0111
S1130A9080538A3018F080E380939A0102E911E0D0
S1130AA0F801868190E0C09728EE33E0829FA00190
S1130AB0839F500D929F500D1124878190E0C09721
S1130AC064E6689F9001699F300D1124240F351F3F
S1130AD0808590E0C097AC01440F551F880F991F83
S1130AE0880F991F880F991F840F951F820F931FDA
S1130AF0218530E020533109820F931F9093BC016C
S1130B008093BB016091BB017091BC0182E090E0D5
S1130B100E940F0ED8011A968C9180538A3018F0D7
S1130B2080E380939C0180919D0180538A3018F06A
S1130B3080E380939D0180919E0180538A3018F058
S1130B4080E380939E0102E911E0F801828590E040
S1130B50C09728EE33E0829FA001839F500D929F9F
S1130B60500D1124838590E0C09764E6689F90013E
S1130B70699F300D1124240F351F848590E0C097A0
S1130B80AC01440F551F880F991F880F991F880FB8
S1130B90991F840F951F820F931F258530E02053E2
S1130BA03109820F931F909348018093470160910C
S1130BB047017091480184E090E00E940F0ED80133
S1130BC01E968C9180538A3018F080E38093A001A4
S1130BD08091A10180538A3018F080E38093A101B1
S1130BE08091A20180538A3018F080E38093A2019F
S1130BF002E911E0F801868590E0C09728EE33E021
S1130C00829FA001839F500D929F500D11248785D0
S1130C1090E0C09764E6689F9001699F300D1124AD
S1130C20240F351F808990E0C097AC01440F551FF5
S1130C30880F991F880F991F880F991F840F951F7C
S1130C40820F931F218930E020533109820F931FB3
S1130C509093600180935F0160915F0170916001E6
S1130C6086E090E00E940F0ED80152968C9180533A
S1130C708A3018F080E38093A4018091A501805309
S1130C808A3018F080E38093A5018091A6018053F7
S1130C908A3018F080E38093A60102E911E0F8019C
S1130CA0828990E0C09728EE33E0829FA001839F61
S1130CB0500D929F500D1124838990E0C09764E6F3
S1130CC0689F9001699F300D1124240F351F84897A
S1130CD090E0C097AC01440F551F880F991F880FEF
S1130CE0991F880F991F840F951F820F931F2589C1
S1130CF030E020533109820F931F90934E0180936B
S1130D004D0160914D0170914E0188E090E00E9488
S1130D100F0ED80156968C9180538A3018F080E3D8
S1130D208093A8018091A90180538A3018F080E350
S1130D308093A9018091AA0180538A3018F080E33E
S1130D408093AA01E2E9F1E0868990E0C09728EE59
S1130D5033E0829FA001839F500D929F500D112478
S1130D60878990E0C09764E6689F9001699F300D81
S1130D701124240F351F808D90E0C097AC01440FDF
S1130D80551F880F991F880F991F880F991F840F6B
S1130D90951F820F931F218D30E020533109820F5C
S1130DA0931F90935C0180935B0160915B01709150
S1130DB05C018AE090E00E940F0ED9C1833609F0ED
S1130DC080C102E911E0F801628170E060537109A9
S1130DD0072E000C880B990B0E94E00C6B017C0120
S1130DE0D80114968C9190E0C097BC01990F880BA0
S1130DF0990B0E94E00C2DEC3CEC4CEC5DE30E9462
S1130E006C0D9B01AC01C701B6010E943C0C6B0147
S1130E107C01F801858190E0C097BC01990F880B93
S1130E20990B0E94E00C2AE037ED43E25CE30E9458
S1130E306C0D9B01AC01C701B6010E943C0C609390
S1130E408E0170938F018093900190939101409152
S1130E508E0150918F01609190017091910184E114
S1130E6090E00E94070ED80116966C9170E06053D2
S1130E707109072E000C880B990B0E94E00C6B0182
S1130E807C01F801808590E0C097BC01990F880B24
S1130E90990B0E94E00C2DEC3CEC4CEC5DE30E94C1
S1130EA06C0D9B01AC01C701B6010E943C0C6B01A7
S1130EB07C01D80119968C9190E0C097BC01990FE0
S1130EC0880B990B0E94E00C2AE037ED43E25CE3C7
S1130ED00E946C0D9B01AC01C701B6010E943C0C41
S1130EE060935701709358018093590190935A016C
S1130EF040915701509158016091590170915A01E4
S1130F008EE190E00E94070EF801628570E0605364
S1130F107109072E000C880B990B0E94E00C6B01E1
S1130F207C01D8011C968C9190E0C097BC01990F6C
S1130F30880B990B0E94E00C2DEC3CEC4CEC5DE32F
S1130F400E946C0D9B01AC01C701B6010E943C0CD0
S1130F506B017C01F801858590E0C097BC01990F75
S1130F60880B990B0E94E00C2AE037ED43E25CE326
S1130F700E946C0D9B01AC01C701B6010E943C0CA0
S1130F806093490170934A0180934B0190934C0103
S1130F904091490150914A0160914B0170914C017B
S1130FA088E290E00E94070ED8011E966C9170E0D2
S1130FB060537109072E000C880B990B0E94E00CFA
S1130FC06B017C01F801808990E0C097BC01990F06
S1130FD0880B990B0E94E00C2DEC3CEC4CEC5DE38F
S1130FE00E946C0D9B01AC01C701B6010E943C0C30
S1130FF06B017C01D80151968C9190E0C097BC01A3
S1131000990F880B990B0E94E00C2AE037ED43E21C
S11310105CE30E946C0D9B01AC01C701B6010E9408
S11310203C0C60931A0170931B0180931C019093F4
S11310301D0140911A0150911B0160911C01709196
S11310401D0182E390E00E94070EF801228930E03E
S11310502053310984E6829FA001839F500D1124FF
S1131060838990E0C0979C01220F331F880F991F3A
S1131070880F991F880F991F820F931F840F951F44
S1131080648970E060537109680F791F072E000CA2
S1131090880B990B0E94E00C609306017093070182
S11310A08093080190930901409106015091070132
S11310B060910801709109018CE390E00E94070E91
S11310C056C0813609F053C08091940190E0FC0130
S11310D0E156F109E631F10508F049C0E25CFF4F41
S11310E00C94ED0D4EEF6EEF82E00E94FA023FC0C9
S11310F048EC68EC83E00E94FA0239C048EC68ECE2
S113110084E00E94FA0233C048EC68EC81E00E945B
S1131110FA022DC040E060E085E00E94FA021092DD
S1131120BA0125C081E08093BA0121C01092530115
S11311301EC081E0809353011AC082E08093530162
S113114016C083E08093530112C084E0809353015E
S11311500EC0E0913E0181E08E0F80933E018091AC
S11311604001F0E0EE56FE4F8083109246018091DC
S11311704001863639F480914601811103C081E033
S1131180809346010F900F900F900F90DF91CF91B5
S1131190FF91EF91BF91AF919F918F917F916F914B
S11311A05F914F913F912F911F910F91FF90EF907D
S11311B0DF90CF900F900FBE0F901F9018952FEFD8
S11311C083EC99E0215080409040E1F700C000009A
S11311D0469A2FEF83EC99E0215080409040E1F74C
S11311E000C0000046982FEF83EC99E02150804026
S11311F09040E1F700C00000469A2FEF83EC99E09D
S1131200215080409040E1F700C0000046982FEF45
S113121083EC99E0215080409040E1F700C0000049
S1131220469A2FEF82E597E0215080409040E1F705
S113123000C0000046982FEF82E597E021508040DF
S11312409040E1F700C00000469A2FEF82E597E056
S1131250215080409040E1F700C0000046982FEFF5
S113126082E597E0215080409040E1F700C0000003
S1131270469A2FE781E997E0215080409040E1F7BA
S113128000C0000046980895893BE8F4179A299A0B
S11312902A9A459A469A2FEF80E792E0215080409F
S11312A09040E1F700C00000179829982A984598C3
S11312B046982FEF80E792E0215080409040E1F77C
S11312C000C000000895179A299A2A9A459A469AC6
S11312D00895813079F028F08230A9F08330E1F06C
S11312E024C04EEF6EEF82E00E94FA0281E0809308
S11312F0560108954EEF6EEF83E00E94FA0281E0FA
S11313008093560108954EEF6EEF84E00E94FA0236
S113131081E080938D0108954EEF6EEF83E00E948B
S1131320FA0281E08093560108954EEF6EEF84E057
S11313300E94FA0281E080938D0108958091530107
S11313408230B9F028F4882341F0813061F00895A7
S11313508330A9F08430C9F00895179A29982A98FF
S1131360459846980895299A17982A984598469832
S113137008952A9A29981798459846980895459A61
S113138029982A9817984698089580914301909136
S113139044010E94440908954F925F926F927F9294
S11313A08F929F92AF92BF92CF92DF92EF92FF9271
S11313B0CF93DF93CDB7DEB728970FB6F894DEBF8F
S11313C00FBECDBF80912101811109C080912201FE
S11313D0811105C080912301882309F469C1109209
S11313E0520110925101EFE1F1E092816381848115
S11313F0C0901A01D0901B01E0901C01F0901D01D7
S113140070E0690F711D680F711D072E000C880BA9
S1131410990B0E94E00CA70196010E943B0C60937B
S1131420120170931301809314019093150160913C
S11314301601709117018091180190911901209162
S113144012013091130140911401509115010E9431
S11314503C0C6093160170931701809318019093CC
S113146019016091120170911301809114019091FE
S1131470150120910E0130910F01409110015091FE
S113148011010E943B0C60930A0170930B0180933D
S11314900C0190930D0160918E0170918F018091E8
S11314A0900190919101209112013091130140918A
S11314B01401509115012D833E834F8358878090EA
S11314C0570190905801A0905901B0905A01409052
S11314D01601509017016090180170901901C09086
S11314E04901D0904A01E0904B01F0904C012091C9
S11314F00A0130910B0140910C0150910D01298397
S11315003A834B835C832D813E814F8158850E94B1
S11315106C0D6D837E838F839887A3019201C5012F
S1131520B4010E946C0D9B01AC016D817E818F81A1
S113153098850E943C0C4B015C0129813A814B81C6
S11315405C81C701B6010E946C0D9B01AC01C50111
S1131550B4010E943C0C609361017093620180931A
S11315606301909364016091060170910701809179
S1131570080190910901209161013091620140912B
S11315806301509164010E943B0C0E94A80C70936B
S11315905E0160935D016091060170910701809185
S11315A008019091090120916101309162014091FB
S11315B06301509164010E943C0C0E94A80C70933A
S11315C055016093540180915D0190915E018F3FBC
S11315D0910534F08FEF90E090935E0180935D016C
S11315E080915401909155018F3F910534F08FEF14
S11315F090E0909355018093540180915D01909106
S11316005E01992324F410925E0110925D01809191
S1131610540190915501992324F41092550110928C
S113162054018091120190911301A0911401B09181
S1131630150180930E0190930F01A0931001B093B4
S1131640110180910001813061F440915401509165
S1131650550160915D0170915E0182E00E94FA0281
S11316606EC0109216011092170110921801109278
S1131670190110920A0110920B0110920C011092A0
S11316800D0110920E0110920F0110921001109290
S113169011014AEF6AEF81E00E94FA023FE749EA4A
S11316A053E0315040405040E1F700C0000047C0D3
S11316B010920E0110920F0110921001109211015C
S11316C0109216011092170110921801109219012C
S11316D080910001813009F580915101909152016E
S11316E0883B9B40A4F480915601813031F44CED49
S11316F06CED83E00E94FA0222C080918D0181305A
S1131700F1F44CED6CED84E00E94FA0218C044EB55
S113171064EB82E00E94FA0212C04AEF6AEF81E0B1
S11317200E94FA02FFE729EA33E0F15020403040FA
S1131730E1F700C000001092520110925101289666
S11317400FB6F894DEBF0FBECDBFDF91CF91FF90EF
S1131750EF90DF90CF90BF90AF909F908F907F904D
S11317606F905F904F9008950E94E5000E94480199
S11317700E94B3020E9451010E94F0000E9466017F
S11317807894109253011092BA0140E060E085E031
S11317900E94FA020E949E098091BA018823A9F34B
S11317A00E94DF08809153010E946909C4E2D1E0DC
S11317B001E010E02881398180914F01909150011E
S11317C08217930778F48091040190910501892B85
S11317D049F410930501009304014EEF6EEF84E089
S11317E00E94FA022885398580914D0190914E011D
S11317F08217930778F48091020190910301892B59
S113180049F410930301009302014EEF6EEF83E05D
S11318100E94FA022E813F8180915F0190916001C4
S11318208217930730F4469A10920501109204012E
S113183001C046982C813D818091BB019091BC01EF
S11318408217930730F4459A109203011092020113
S113185001C045988091040190910501892B09F0FC
S1131860A9CF8091020190910301892B09F0A2CFA5
S11318700E94CC099FCF5058BB27AA270E94530C23
S11318800C94320D0E94240D38F00E942B0D20F090
S113189039F49F3F19F426F40C94210D0EF4E095CD
S11318A0E7FB0C941B0DE92F0E94430D58F3BA1764
S11318B0620773078407950720F079F4A6F50C9462
S11318C0650D0EF4E0950B2EBA2FA02D0B01B90176
S11318D090010C01CA01A0011124FF27591B99F0A2
S11318E0593F50F4503E68F11A16F040A22F232FAE
S11318F0342F4427585FF3CF469537952795A795FE
S1131900F0405395C9F77EF41F16BA0B620B730BA4
S1131910840BBAF09150A1F0FF0FBB1F661F771F15
S1131920881FC2F70EC0BA0F621F731F841F48F4CA
S1131930879577956795B795F7959E3F08F0B0CF53
S11319409395880F08F09927EE0F9795879508953A
S11319500E94AF0C6894B1110C94660D08950E9416
S11319604B0D88F09F5798F0B92F9927B751B0F0D5
S1131970E1F0660F771F881F991F1AF0BA95C9F70F
S113198014C0B13091F00E94650DB1E008950C943B
S1131990650D672F782F8827B85F39F0B93FCCF3EE
S11319A0869577956795B395D9F73EF4909580958C
S11319B0709561957F4F8F4F9F4F0895E89409C0AC
S11319C097FB3EF490958095709561957F4F8F4F6E
S11319D09F4F9923A9F0F92F96E9BB279395F69584
S11319E0879577956795B795F111F8CFFAF4BB0F02
S11319F011F460FF1BC06F5F7F4F8F4F9F4F16C066
S1131A00882311F096E911C0772321F09EE8872FEF
S1131A10762F05C0662371F096E8862F70E060E0AB
S1131A202AF09A95660F771F881FDAF7880F969524
S1131A30879597F9089597F99F6780E870E060E0CB
S1131A4008959FEF80EC089500240A941616170653
S1131A5018060906089500240A941216130614069B
S1131A6005060895092E0394000C11F4882352F0FE
S1131A70BB0F40F4BF2B11F460FF04C06F5F7F4FB6
S1131A808F4F9F4F089557FD9058440F551F59F09D
S1131A905F3F71F04795880F97FB991F61F09F3F57
S1131AA079F087950895121613061406551FF2CF80
S1131AB04695F1DF08C0161617061806991FF1CFD0
S1131AC086957105610508940895E894BB276627F7
S1131AD07727CB0197F908950E947F0D0C94320D5E
S1131AE00E94240D38F00E942B0D20F0952311F054
S1131AF00C941B0D0C94210D11240C94660D0E9462
S1131B00430D70F3959FC1F3950F50E0551F629FED
S1131B10F001729FBB27F00DB11D639FAA27F00D42
S1131B20B11DAA1F649F6627B00DA11D661F829F69
S1131B302227B00DA11D621F739FB00DA11D621F4E
S1131B40839FA00D611D221F749F3327A00D611D6B
S1131B50231F849F600D211D822F762F6A2F11244D
S1131B609F5750409AF0F1F088234AF0EE0FFF1F80
S1131B70BB1F661F771F881F91505040A9F79E3FD7
S1131B80510580F00C941B0D0C94660D5F3FE4F33B
S1131B90983ED4F3869577956795B795F795E7952D
S1131BA09F5FC1F7FE2B880F911D9695879597F936
S1131BB0089597FB072E16F4009407D077FD09D0FB
S1131BC00E94F30D07FC05D03EF4909581959F4F3C
S1131BD00895709561957F4F0895EE0FFF1F05904E
S1131BE0F491E02D0994AA1BBB1B51E107C0AA1F65
S1131BF0BB1FA617B70710F0A61BB70B881F991FAA
S1131C005A95A9F780959095BC01CD010895242F8C
S1131C100E94150E252F0E94150E0C940F0E0E9483
S1131C20140E272F0C94150E262FF999FECF1FBAE8
S1131C3092BD81BD20BD0FB6F894FA9AF99A0FBEF1
S10B1C4001960895F894FFCF0A
S1051C48010095
S9030000FC
