S0100000696C6C75636961322E73726563FF
S11300000C943E000C945B000C945B000C945B001D
S11300100C945B000C945B000C945B000C945B00F0
S11300200C945B000C945B000C945B000C945B00E0
S11300300C945B000C947A000C945B000C945B00B1
S11300400C945B000C945B000C945B000C945B00C0
S11300500C94E0000C945B000C945B000C945B002B
S11300600C945B000C945B000C945B000C945B00A0
S11300700C945B000C945B000C945B0011241FBE79
S1130080CFEFD4E0DEBFCDBF11E0A0E0B1E0E2EB02
S1130090F8E002C005900D92A632B107D9F722E02C
S11300A0A6E2B1E001C01D92AE33B207E1F70E94AF
S11300B0D9030C9457040C94000041110BC09BB15C
S11300C021E030E0082E02C0220F331F0A94E2F729
S11300D0292B2BB946130DC04BB121E030E0B901F7
S11300E002C0660F771F8A95E2F7CB0180958423BF
S11300F08BB908951F920F920FB60F9211240F938C
S11301001F932F933F934F935F936F937F938F939B
S11301109F93AF93BF93CF93DF93EF93FF9380911C
S113012026018F5F80932601CBE1D1E003E211E049
S1130130FE013197808140912601688190E00E9400
S11301405D002296C017D10799F7FF91EF91DF91D7
S1130150CF91BF91AF919F918F917F916F915F915B
S11301604F913F912F911F910F910F900FBE0F90C0
S11301701F9018951092C00088E98093C10086E012
S11301808093C20083E390E09093C5008093C40001
S11301900895E0ECF0E0908195FFFDCF8093C600D8
S11301A00895CF93DF93EC018881882331F0219661
S11301B00E94C90089918111FBCFDF91CF910895ED
S11301C01F920F920FB60F9211242F933F938F9388
S11301D09F93EF93FF93E0ECF0E080818823ECF7AA
S11301E08091C60080932701809127018C3661F4A9
S11301F0809122019091230102970CF44BC010923C
S113020023011092220149C080912701823751F4C1
S11302108091220190912301029724F081E0809340
S1130220240111C080912201909123019C012F5F30
S11302303F4F309323012093220120912701FC0199
S1130240E45CFD4F20838091220190912301029769
S113025024F180913D02813671F43BB120913C023E
S1130260205381E090E002C0880F991F2A95E2F79D
S1130270832B8BB912C02BB130913C02305381E0F7
S113028090E002C0880F991F3A95E2F78095822387
S11302908BB903C080912701C5CFFF91EF919F9146
S11302A08F913F912F910F900FBE0F901F90189533
S11302B08EE38AB980EC8BB914B89FEF95B917B85F
S11302C098B912B882B9089580937C008FE3809323
S11302D07E0086EC80937A00EAE7F0E0808186FD78
S11302E0FDCF809178009091790008957F928F924C
S11302F09F92AF92BF92CF92DF92EF92FF920F93B1
S11303001F93CF93DF93C7E1D1E003E0AA24A39422
S1130310B12C0F2EF8E2EF2EF1E0FF2EF02D9924F0
S1130320939488248A946894772471F819B16E019F
S1130330FE013197C501008002C0880F991F0A94FD
S1130340E2F718232881211791F0212F30E082173A
S1130350930711F0872D01C0892DF7019082018345
S113036082838382C7010E94D100F6011083229602
S11303700F5F0530D9F6DF91CF911F910F91FF9058
S1130380EF90DF90CF90BF90AF909F908F907F9031
S113039008957F928F929F92AF92BF92CF92DF92F5
S11303A0EF92FF920F931F93CF93DF93C3E1D1E0BA
S11303B001E0AA24A394B12C0F2EF8E2EF2EF1E071
S11303C0FF2EF02D9924939488248A94689477249A
S11303D071F810B16E01FE013197C501008002C0B1
S11303E0880F991F0A94E2F718232881211791F0A6
S11303F0212F30E08217930711F0872D01C0892D3A
S1130400F7019082018382838382C7010E94D10015
S1130410F601108322960F5F0330D9F6DF91CF9156
S11304201F910F91FF90EF90DF90CF90BF90AF900E
S11304309F908F907F9008956F927F928F929F925A
S1130440AF92BF92CF92DF92EF92FF920F931F93DE
S1130450CF93DF9300E011E0BB24B3940F2EF8E2B6
S1130460EF2EF1E0FF2EF02D0F2EF3E0AF2EF02D46
S1130470812C912C66246A940F2EF3E07F2EF02DAC
S11304806801F80180810E946401EC01F801218176
S11304903281281B390BC901992324F48827992711
S11304A0821B930B0797BCF0C730D1053CF0C93FC2
S11304B0F3E0DF072CF0C62DD72D02C0C82DD92DAF
S11304C0F701A082B182D283C383C7010E94D10005
S11304D0F601D283C1830D5F1F4FB394F7E0BF12BF
S11304E0CFCFDF91CF911F910F91FF90EF90DF90CD
S11304F0CF90BF90AF909F908F907F906F90089512
S1130500CF93ACE2B1E060E0C0E070E021E0FD0137
S113051061938C2F972F8830910544F4322F082E45
S113052001C0330F0A94EAF7308309C0AC01485084
S11305305109322F01C0330F4A95EAF730830196EF
S113054031968031910539F76F5F51966830F9F62D
S1130550A5EBB1E0C0E070E021E0FD0131976083DC
S1130560FD018C2F972F8830910544F4322F082EEB
S113057001C0330F0A94EAF7308309C0AC01485034
S11305805109322F01C0330F4A95EAF7308301969F
S113059031968031910539F76F5F51966031E9F6F4
S11305A0CF9108952F923F924F925F926F927F92D4
S11305B08F929F92AF92BF92CF92DF92EF92FF926F
S11305C00F931F93CF93DF9300D000D01F92CDB72A
S11305D0DEB74DE251E05A834983612C712CCC245F
S11305E0C394D12C0F2EF8E28F2EF1E09F2EF02D24
S11305F06894552451F8382C492C252C58E065165C
S113060071048CF424B1C601062C02C0880F991F12
S11306100A94E2F7922F982B94B995B18095892387
S113062085B96B8212C0C30108978B8327B1F60189
S113063002C0EE0FFF1F8A95E2F7CF01922F982B8D
S113064097B998B18095892388B90F2EFCE2EF2ED3
S1130650F1E0FF2EF02D09811A811C821D825801C0
S1130660F1E0AF1AB1088C819D818615970509F4D4
S113067047C008979CF423B1B601F701008002C07B
S1130680660F771F0A94E2F730E026233723F80138
S1130690408150E024173507A9F432C026B1F70190
S11306A080818850B60102C0660F771F8A95E2F7F1
S11306B030E026233723F801408150E042175307E6
S11306C031F41EC06217730739F0922D08C0621707
S11306D0730721F0922D03C091E001C091E0F8016D
S11306E02083F4015082F5018081F4018183F701B4
S11306F08081F40182839383832D942D0E94D10001
S11307004C815D814F5F5F4F5D834C8351E1E50E0A
S1130710F11C0F5F1F4F8C819D81409709F0A3CF7F
S113072098E06916710484F424B1C6010B8002C0F8
S1130730880F991F0A94E2F7982F9095922394B901
S113074095B1892B85B90FC027B1C6010B8002C0B2
S1130750880F991F0A94E2F7982F9095922397B9DE
S113076098B1892B88B9EFEF6E1A7E0A49815A81B4
S11307704F5E5F4F5A83498350E16516710409F057
S11307803DCF0F900F900F900F900F90DF91CF916E
S11307901F910F91FF90EF90DF90CF90BF90AF909B
S11307A09F908F907F906F905F904F903F902F908D
S11307B008950E9458010E94BA0078940E94800211
S11307C008E211E00F2EF4E66F2EF02D0F2EF5E661
S11307D07F2EF02D0F2EF4E78F2EF02D0F2EF2E743
S11307E09F2EF02D6894AA24A1F8B12C0F2EF2E2CA
S11307F0CF2EF1E0DF2EF02DC1E0D0E00F2EFAE194
S1130800EF2EF1E0FF2EF02D80912401882309F4CE
S11308103FC0F8016082718282829382C8010E9483
S1130820D100FFEF20E782E0F15020408040E1F763
S113083000C00000109224014A2D5B2D27C02BB16B
S1130840CE01008002C0880F991F0A94E2F7822B20
S11308508BB99FE329E181E0915020408040E1F78A
S113086000C000002BB1CE01008002C0880F991F88
S11308700A94E2F7982F909592239BB93296EC153F
S1130880FD05E9F64150510909F4BECFF701D7CF70
S11308900E9476010E94C9010E94D2020E941C0299
S11308A0EFECF7E03197F1F700C00000ADCFF8941A
S10508B0FFCF74
S11308B240000041000042000043000044000045A3
S11308C2000006400780064007800200030004007F
S10908D205000500010011
S9030000FC
