S0110000756C74726F6E5F76312E7372656369
S11300000C9449000C9489010C9468010C946600CA
S11300100C9466000C9466000C9466000C946600C4
S11300200C9466000C9466000C9466000C946600B4
S11300300C9466000C94AE010C9481020C9466003E
S11300400C9466000C9466000C9466000C94660094
S11300500C948B020C9466000C9466000C9466005D
S11300600C9466000C9466000C9466000C94660074
S11300700C9466000C9466000C946600B002B50201
S1130080BA02BF02C402C902CE02D402DA02E002FA
S1130090E60211241FBECFEFD4E0DEBFCDBF11E0D6
S11300A0A0E0B1E0E8E0F6E002C005900D92A230D5
S11300B0B107D9F721E0A2E0B1E001C01D92A63357
S11300C0B207E1F70E9445010C9402030C9400006E
S11300D080E881B98FEF87B982EF8AB98CE08BB958
S11300E08EE184B908958AE08093690083E08DBB32
S11300F0089583EA84BD82E085BD17BC18BC0895C9
S1130100E0ECF0E0908195FFFDCF8093C600089568
S11301108770806E80937C00EAE7F0E080818064E1
S11301208083808186FDFDCF8091790090E00895E1
S11301308330A9F028F4813041F0823059F01DC099
S1130140843091F08530A9F018C05E9A5F985C9A6B
S11301505D9813C05F9A5E985D9A5C980EC05E9A33
S11301605F985D9A5C9809C05F9A5E985C9A5D9806
S113017004C05E985C985F985D9867BD48BD08951B
S1130180813061F028F0823079F0833099F008955D
S1130190179A29982A98459846980895299A17985D
S11301A02A984598469808952A9A29981798459820
S11301B046980895459A29982A9817984698089534
S11301C02FEF83EC99E0215080409040E1F700C08C
S11301D00000469A2FEF83EC99E021508040904034
S11301E0E1F700C0000046982FEF83EC99E021501E
S11301F080409040E1F700C00000469A2FEF83EC66
S113020099E0215080409040E1F700C000004698FA
S11302102FEF83EC99E0215080409040E1F700C03B
S11302200000469A2FEF82E597E0215080409040ED
S1130230E1F700C0000046982FEF82E597E02150D7
S113024080409040E1F700C00000469A2FEF82E51D
S113025097E0215080409040E1F700C000004698AC
S11302602FEF82E597E0215080409040E1F700C0F5
S11302700000469A2FE781E997E0215080409040A2
S1130280E1F700C00000469808950E9468000E94AB
S113029079000E94730078941092130110921A014D
S11302A01092190140913001609114018091130161
S11302B00E94C00080911A018823A1F30E94E000EB
S11302C040EF60EF82E00E94980080911001FDCF22
S11302D01F920F920FB60F9211248F939F938FE367
S11302E09CE90197F1F700C000004B990BC0809185
S11302F013018F5F8093130180911301853010F0F7
S1130300109213019F918F910F900FBE0F901F9029
S113031018951F920F920FB60F9211248F939F93EB
S11303208FE39CE90197F1F700C000004A990FC0E0
S113033081E080931A0180911901811105C02A9AE4
S113034081E08093190103C02A98109219019F91AA
S11303508F910F900FBE0F901F9018951F920F92C0
S11303600FB60F9211242F933F934F935F936F9384
S11303707F938F939F93AF93BF93CF93DF93EF9329
S1130380FF938091110190911201019690931201B3
S11303908093110186E00E9488008093140185E017
S11303A00E94880090931701809316018091280180
S11303B0209116013091170190E02817390718F49D
S11303C01092000103C081E080930001809110012C
S11303D0811129C088B18B6188B9C0E0D0E0C230F6
S11303E0D1051CF08C2F8F5F01C08C2F0E948800D8
S11303F0FE01E85FFE4F9081891BFE01EE5FFE4F18
S113040080832196C430D10551F7809116019091D3
S11304101701E2E0F1E0848380911401858381E097
S11304208093100118C088B1847E88B9C0E0D0E000
S1130430C230D1051CF08C2F8F5F01C08C2F0E941D
S11304408800FE01E85FFE4F80832196C430D10509
S113045079F710921001909102018091210189177E
S113046048F482E080930C011092150181E080939E
S1130470180102C010920C01909103018091350182
S1130480891740F481E080930D0180931501109247
S1130490180102C010920D019091040180912B016A
S11304A0891748F48FEF80930E0181E08093150142
S11304B01092180102C010920E01909105018091D2
S11304C02001891748F48EEF80930F0110921501D3
S11304D081E08093180102C010920F01FF91EF9107
S11304E0DF91CF91BF91AF919F918F917F916F9148
S11304F05F914F913F912F910F900FBE0F901F90DE
S113050018951F920F920FB60F9211240F900FBEE1
S11305100F901F9018951F920F920FB60F921124EF
S11305202F933F934F935F936F937F938F939F93F7
S1130530AF93BF93EF93FF93E0ECF0E080818823C7
S1130540ECF7E091C6008E2F90E0FC01E156F10932
S1130550EB30F10508F03FC0E25CFF4F0C94FC0265
S1130560809102010E94800036C0809103010E94A4
S1130570800031C0809104010E9480002CC08091D1
S113058005010E94800027C0809106010E9480001E
S113059022C0809107010E9480001DC048EC68ECD5
S11305A082E00E94980017C048EC68EC83E00E9447
S11305B0980011C048EC68EC84E00E9498000BC0DD
S11305C048EC68EC81E00E94980005C048EC68ECB7
S11305D085E00E949800FF91EF91BF91AF919F91A8
S11305E08F917F916F915F914F913F912F910F90D8
S11305F00FBE0F901F901895EE0FFF1F0590F491FA
S10B0600E02D0994F894FFCFEA
S10506080100EB
S9030000FC
